:100000000C945D000C9485000C9485000C94850084
:100010000C9485000C9485000C9485000C9485004C
:100020000C9485000C94D3030C9485000C9412035B
:100030000C9485000C9485000C9485000C9485002C
:100040000C94C8020C9485000C9496020C947002D7
:100050000C9485000C9485000C9485000C9485000C
:100060000C9485000C94850000000008000201003B
:100070000003040700000000000000000000000072
:10008000250028002B0000000000240027002A0083
:10009000040404040404040402020202020203032E
:1000A0000303030301020408102040800102040836
:1000B0001020010204081020460511241FBECFEFB6
:1000C000D8E0DEBFCDBF11E0A0E0B1E0E4E1F2E1B5
:1000D00002C005900D92A833B107D9F722E0A8E33A
:1000E000B1E001C01D92AD36B207E1F710E0CDE5F9
:1000F000D0E004C02197FE010E94FD08CC35D10755
:10010000C9F70E94EC050C9408090C940000CF92EA
:10011000DF92EF92FF920F931F93CF93DF936C01C7
:100120007A018B01C0E0D0E0CE15DF0589F0D8015F
:100130006D918D01D601ED91FC910190F081E02D42
:10014000C6010995892B11F47E0102C02196ECCFDE
:10015000C701DF91CF911F910F91FF90EF90DF903A
:10016000CF900895089580E090E00895FC01538DAC
:10017000448D252F30E0842F90E0821B930B541781
:1001800010F0CF96089501970895FC01918D828D0E
:10019000981761F0828DDF01A80FB11D5D968C91DB
:1001A000928D9F5F9F73928F90E008958FEF9FEFE6
:1001B0000895FC01918D828D981731F0828DE80FA2
:1001C000F11D858D90E008958FEF9FEF0895FC015C
:1001D000918D228D892F90E0805C9F4F821B910929
:1001E0008F73992708958AE491E00E94E70021E047
:1001F000892B09F420E0822F0895FC01848DDF0112
:10020000A80FB11DA35ABF4F2C91848D90E0019689
:100210008F739927848FA689B7892C93A089B18978
:100220008C9180648C93938D848D981306C0028882
:10023000F389E02D80818F7D80830895EF92FF9276
:100240000F931F93CF93DF93EC0181E0888F9B8DF9
:100250008C8D981305C0E889F989808185FD24C0BB
:10026000F62E0B8D10E00F5F1F4F0F731127E02E3E
:100270008C8DE8120CC00FB607FCFACFE889F9891B
:10028000808185FFF5CFCE010E94FD00F1CF8B8DDF
:10029000FE01E80FF11DE35AFF4FF0820B8FEA8950
:1002A000FB898081806207C0EE89FF896083E889CD
:1002B000F98980818064808381E090E0DF91CF9133
:1002C0001F910F91FF90EF900895CF93DF93EC0172
:1002D000888D8823C9F0EA89FB89808185FD05C066
:1002E000A889B9898C9186FD0FC00FB607FCF5CFA0
:1002F000808185FFF2CFA889B9898C9185FFEDCFE8
:10030000CE010E94FD00E7CFDF91CF91089580E0FC
:1003100090E0892B29F00E94F30081110C940000D9
:10032000089590E0FC01E859FF4F3491FC01EC5531
:10033000FF4F2491FC01E057FF4FE491EE2309F4B5
:100340003BC0332339F1333091F038F43130A9F028
:10035000323001F584B58F7D12C0373091F03830DE
:10036000A1F03430B9F4809180008F7D03C080917A
:1003700080008F77809380000DC084B58F7784BD17
:1003800009C08091B0008F7703C08091B0008F7D4D
:100390008093B000F0E0EE0FFF1FE458FF4FA591EF
:1003A000B4918FB7F894EC91611103C020952E237E
:1003B00001C02E2B2C938FBF08952FB7F894609116
:1003C0003E0170913F0180914001909141012FBF0A
:1003D00008958F929F92AF92BF92CF92DF92EF9249
:1003E000FF926B017C010E94DD014B015C01C60E96
:1003F000D71EE81EF91E0E94DD01681579058A05E1
:100400009B0528F0C616D706E806F906A0F7FF9068
:10041000EF90DF90CF90BF90AF909F908F90089516
:100420000E9403096115710579F0FB01019000201C
:10043000E9F73197AF01461B570BDC01ED91FC91B9
:100440000280F381E02D099480E090E008954F92BE
:100450005F926F927F92EF92FF920F931F93CF93D1
:10046000DF93CDB7DEB7A1970FB6F894DEBF0FBE0E
:10047000CDBF7C01FA01CB0119A2223008F42AE099
:100480008E010F5D1F4F422E512C612C712CBF012C
:10049000A30192010E949608F901CA0101501109B5
:1004A0006A3014F4605D01C0695CD8016C93232B41
:1004B000242B252B61F7B801C7010E941202A196D7
:1004C0000FB6F894DEBF0FBECDBFDF91CF911F9165
:1004D0000F91FF90EF907F906F905F904F900895F5
:1004E0001F920F920FB60F9211242F933F934F93A9
:1004F0005F936F937F938F939F93AF93BF93EF938C
:10050000FF938AE491E00E94FD00FF91EF91BF917B
:10051000AF919F918F917F916F915F914F913F919B
:100520002F910F900FBE0F901F9018951F920F9252
:100530000FB60F9211242F938F939F93EF93FF93F6
:10054000E0915A01F0915B018081E0916001F091AE
:10055000610182FD12C09081809163018F5F8F7372
:1005600020916401821751F0E0916301F0E0E65BB5
:10057000FE4F958F8093630101C08081FF91EF91C1
:100580009F918F912F910F900FBE0F901F901895F4
:100590001F920F920FB60F9211242F933F938F93B8
:1005A0009F93AF93BF9380913E0190913F01A091A3
:1005B0004001B091410130913D0123E0230F2D37DF
:1005C00020F40196A11DB11D05C026E8230F029657
:1005D000A11DB11D20933D0180933E0190933F01E9
:1005E000A0934001B09341018091390190913A016B
:1005F000A0913B01B0913C010196A11DB11D8093DA
:10060000390190933A01A0933B01B0933C01BF9113
:10061000AF919F918F913F912F910F900FBE0F90AF
:100620001F9018951F920F920FB60F9211242F93BF
:100630003F934F935F936F937F938F939F93AF936A
:10064000BF93EF93FF938091380187FF05C010920D
:100650008500109284001BC020913801022E000CEE
:10066000330B8091690290E02817390784F4809158
:100670003801082E000C990BFC01EE0FFF1F8E0FA6
:100680009F1FFC01EB5BFD4F808186FD15C08091B3
:1006900038018F5F8093380120913801022E000CC1
:1006A000330B8091690290E028173907C4F48091D8
:1006B00038018C3064F113C080913801082E000C91
:1006C000990BFC01EE0FFF1F8E0F9F1FFC01EB5BD0
:1006D000FD4F808160E08F730E949101D8CF80919F
:1006E000840090918500049680349C4918F480E43D
:1006F0009CE905C0809184009091850004969093B8
:100700008900809388008FEF809338013BC020914F
:1007100084003091850080913801082E000C990BDF
:10072000FC01EE0FFF1F8E0F9F1FFC01EB5BFD4FC7
:1007300081819281820F931F90938900809388001A
:1007400080913801082E000C990BFC01EE0FFF1F61
:100750008E0F9F1FFC01EB5BFD4F808186FF12C057
:1007600080913801082E000C990BFC01EE0FFF1F41
:100770008E0F9F1FFC01EB5BFD4F808161E08F734B
:100780000E949101FF91EF91BF91AF919F918F9145
:100790007F916F915F914F913F912F910F900FBE7D
:1007A0000F901F9018951F920F920FB60F92112461
:1007B000CF92DF92EF92FF920F931F932F933F936D
:1007C0004F935F936F937F938F939F93AF93BF9359
:1007D000CF93DF93EF93FF930E94DD0160933D027F
:1007E00070933E0280933F029093400280913402C6
:1007F00090913502A0913602B091370280589F4FF8
:10080000AF4FBF4F8093340290933502A0933602CE
:10081000B0933702409138025091390260913A0208
:1008200070913B0284179507A607B707D0F4481BC1
:10083000590B6A0B7B0B9A012F773327220F331F3B
:100840008FEF90E0821B930B9093330280933202E0
:10085000403851056105710510F082E0FCC08E5FE3
:10086000FAC01092340210923502109236021092A1
:10087000370210E03091310280912F0290913002C6
:10088000131708F046C02BE0129FE0011124FC0171
:10089000EC0FFD1F22852223D1F14681578160850F
:1008A000718520913C02DC013BE0239FA00DB11D2E
:1008B000112416968D919D910D90BC91A02D4817F5
:1008C00059076A077B0799F40190F081E02D09959B
:1008D00080912F0290913002C80FD91F8A819B818D
:1008E000AC81BD818E839F83A887B98710C080911A
:1008F000380290913902A0913A02B0913B02481B14
:10090000590B6A0B7B0B46835783608771871F5F88
:10091000B1CF10923C02FC01759621E02317F8F448
:1009200040814423C9F040913C02EC015BE0459FCB
:10093000C00DD11D1124DF011497CD90DD90ED90F5
:10094000FC904E815F8168857985C416D506E606E0
:10095000F70610F420933C022F5F3B96DFCF2091E7
:100960003C02FC013BE0239FE00DF11D1124868138
:100970009781A085B1858093380290933902A09326
:100980003A02B0933B02409134025091350260919B
:10099000360270913702841B950BA60BB70B8F772D
:1009A0009927880F991F2FEF30E0A901481B590B99
:1009B00050933302409332020E94DD0100913D02C8
:1009C00010913E0220913F0230914002DC01CB01A8
:1009D000801B910BA20BB30B8093410290934202B8
:1009E000A0934302B093440200913802109139025F
:1009F00020913A0230913B02C0903402D0903502EF
:100A0000E0903602F09037020C191D092E093F09BB
:100A1000003811052105310538F04696A11DB11D9C
:100A2000BC01660F771F0BC0209132023091330258
:100A3000245D3F4FBC01660F771F620F731F7093D9
:100A400033026093320280913202909133028F3FE1
:100A5000910508F08EEF8093B200FF91EF91DF9146
:100A6000CF91BF91AF919F918F917F916F915F9146
:100A70004F913F912F911F910F91FF90EF90DF9039
:100A8000CF900F900FBE0F901F90189510924D01B0
:100A900010924C0188EE93E0A0E0B0E080934E010C
:100AA00090934F01A0935001B093510184E091E0E5
:100AB00090934B0180934A0185EC90E0909357010D
:100AC0008093560184EC90E09093590180935801F3
:100AD00080EC90E090935B0180935A0181EC90E070
:100AE00090935D0180935C0182EC90E090935F01B4
:100AF00080935E0186EC90E09093610180936001A9
:100B000010926301109264011092650110926601C7
:100B10001092ED011092EE011092EF011092F0018F
:100B20001092F1011092F2011092F3011092F4016F
:100B30001092F5011092F6011092F7011092F8014F
:100B40001092F9011092FA011092FB011092FC012F
:100B5000109231021092330210923202109234023B
:100B6000109235021092360210923702109238021B
:100B70001092390210923A0210923B0210923C02FB
:100B800010923D0210923E0210923F0210924002DB
:100B900010924102109242021092430210924402BB
:100BA000809169028C30A0F491E0980F90936902D3
:100BB00080936A0290E0FC01EE0FFF1F8E0F9F1FD3
:100BC000FC01EB5BFD4F88EB9BE0928381830895F2
:100BD0008FEF80936A020895CF93DF9300D01F9226
:100BE000CDB7DEB7789484B5826084BD84B581606A
:100BF00084BD85B5826085BD85B5816085BD8091E8
:100C00006E00816080936E0010928100809181005F
:100C10008260809381008091810081608093810057
:100C2000809180008160809380008091B100846019
:100C30008093B1008091B00081608093B00080917A
:100C40007A00846080937A0080917A008260809339
:100C50007A0080917A00816080937A0080917A0096
:100C6000806880937A001092C10010922B0210923B
:100C70002C0210922D0210922E021092E901109275
:100C8000EA011092EB011092EC0168EB7BE080E04E
:100C900090E00E94E9018AE491E090932A02809317
:100CA0002902E0915A01F0915B0182E08083E0919A
:100CB0005601F09157011082E0915801F0915901CD
:100CC00080E1808310926201E0915E01F0915F010A
:100CD00086E08083E0915C01F0915D01808180611C
:100CE0008083E0915C01F0915D0180818860808368
:100CF000E0915C01F0915D01808180688083E091EA
:100D00005C01F0915D0180818F7D80830E94DD0117
:100D10006093E9017093EA018093EB019093EC01F9
:100D200062E171E08091290290912A020E941202F0
:100D30006AE070E080E090E00E94E90181E0809349
:100D4000FD0180916A028C3008F068C0ECEAF0E0A6
:100D50002491E8E9F0E08491882399F090E0880FED
:100D6000991FFC01EA57FF4FA591B491FC01E4588B
:100D7000FF4F859194918FB7F894EC91E22BEC930F
:100D80008FBF80916A02E82FF0E09F01220F331F8E
:100D9000E20FF31FEB5BFD4F9081907C9860908396
:100DA00010926B0210926C026CE00E94F1082CE031
:100DB000829FB001112440E050E09A01260F371FB6
:100DC000F901EE0FFF1F2E0F3F1FF901EB5BFD4FE7
:100DD000908196FD16C04F5F5F4F4C30510569F70B
:100DE00081110FC01092800082E0809381001092E8
:100DF000850010928400B19A80916F008260809388
:100E00006F00E0916A02F0E0CF01880F991FE80FB0
:100E1000F91FEB5BFD4F80818064808364EFC62EF9
:100E2000DD24D394E12CF12C78E5272E72E0372EC7
:100E3000E4EB8E2E912CA12CB12C0E94DD01672BAE
:100E4000682B692B41F40E94DD0162307105810538
:100E5000910508F40AC10E94DD0160934601709378
:100E600047018093480190934901009142011091FC
:100E700043012091440130914501601771078207B9
:100E8000930740F4609342017093430180934401BF
:100E9000909345010091420110914301209144013A
:100EA000309145012B013C01401A510A620A730A34
:100EB000930182010A3F11052105310508F4D5C0CF
:100EC00060934201709343018093440190934501E4
:100ED000C092F501D092F601E092F701F092F8018C
:100EE0001092F9011092FA011092FB011092FC018C
:100EF0008091ED019091EE01A091EF01B091F00190
:100F00008093F1019093F201A093F301B093F40167
:100F10000E94DD016093ED017093EE018093EF017B
:100F20009093F0010E94DD016093E9017093EA0162
:100F30008093EB019093EC010E94DD012B013C01B9
:100F400064E271E08091290290912A020E941202CB
:100F50002AE041E050E060E070E080912902909149
:100F60002A020E9427026BE271E08091290290918F
:100F70002A020E9412022AE0B301A20180912902F2
:100F800090912A020E9427026DE271E0809129026D
:100F900090912A020E9412028091ED019091EE013F
:100FA000A091EF01B091F001B301A201481B590BD0
:100FB0006A0B7B0B2AE08091290290912A020E9401
:100FC00027026DE271E08091290290912A020E942D
:100FD00012024091ED015091EE016091EF0170918C
:100FE000F0018091F1019091F201A091F301B09193
:100FF000F401481B590B6A0B7B0B2AE080912902F4
:1010000090912A020E9427026FE271E080912902EA
:1010100090912A020E9412020E94DD01AB01BC01E4
:101020002AE08091290290912A020E9427020091D1
:10103000290210912A0261E371E0C8010E941202A4
:1010400061E271E0C8010E94120265E070E080E098
:1010500090E00E94E9010E94DD016093ED01709330
:10106000EE018093EF019093F00190916C028091DA
:101070006B0250906A025982252D2C3008F053C023
:101080008101091B110997FD1395000F111F000F16
:10109000111FE8E8F0E0E81BF10987FDF3952F0147
:1010A000440C551C440C551C5B824A82052C000CD8
:1010B00066087708C801012E000CAA0BBB0B9C0127
:1010C000AD012419350946095709A5E5B0E00E948C
:1010D000D708A50194010E94B808420E531E641E51
:1010E000751E2A813B81421653063CF05B824A8280
:1010F0000415150514F41B830A834A815B81425051
:101100005109440F551F2FB7F8944980842D90E062
:10111000FC01EE0FFF1F8E0F9F1FFC01EB5BFD4FCD
:10112000528341832FBF0E94870187CEA1E21A2EEE
:10113000AA1BBB1BFD010DC0AA1FBB1FEE1FFF1F7B
:10114000A217B307E407F50720F0A21BB30BE40BCB
:10115000F50B661F771F881F991F1A9469F7609512
:101160007095809590959B01AC01BD01CF010895CC
:10117000052E97FB1EF400940E94CF0857FD07D060
:101180000E94960807FC03D04EF40C94CF085095AB
:101190004095309521953F4F4F4F5F4F0895909563
:1011A0008095709561957F4F8F4F9F4F08950E9456
:1011B000E208A59F900DB49F900DA49F800D911DF6
:1011C00011240895A29FB001B39FC001A39F700D89
:1011D000811D1124911DB29F700D811D1124911D3F
:1011E0000895991B79E004C0991F961708F0961B83
:1011F000881F7A95C9F780950895EE0FFF1F059017
:10120000F491E02D099481E090E0F8940C940809A1
:04121000F894FFCF80
:10121400000000001E018700B6006501E700C5005C
:10122400D900564D4450565F317C315F564D445081
:10123400560D0A00564D4450455F003A323A007C40
:08124400005F564D44504500C7
:107E0000112484B714BE81FFF0D085E080938100F7
:107E100082E08093C00088E18093C10086E0809377
:107E2000C20080E18093C4008EE0C9D0259A86E02C
:107E300020E33CEF91E0309385002093840096BBD3
:107E4000B09BFECF1D9AA8958150A9F7CC24DD24C4
:107E500088248394B5E0AB2EA1E19A2EF3E0BF2EE7
:107E6000A2D0813461F49FD0082FAFD0023811F036
:107E7000013811F484E001C083E08DD089C08234E0
:107E800011F484E103C0853419F485E0A6D080C0E4
:107E9000853579F488D0E82EFF2485D0082F10E0AE
:107EA000102F00270E291F29000F111F8ED06801E7
:107EB0006FC0863521F484E090D080E0DECF843638
:107EC00009F040C070D06FD0082F6DD080E0C81688
:107ED00080E7D80618F4F601B7BEE895C0E0D1E017
:107EE00062D089930C17E1F7F0E0CF16F0E7DF06D8
:107EF00018F0F601B7BEE89568D007B600FCFDCFD4
:107F0000A601A0E0B1E02C9130E011968C91119780
:107F100090E0982F8827822B932B1296FA010C0160
:107F200087BEE89511244E5F5F4FF1E0A038BF0790
:107F300051F7F601A7BEE89507B600FCFDCF97BE46
:107F4000E89526C08437B1F42ED02DD0F82E2BD052
:107F50003CD0F601EF2C8F010F5F1F4F84911BD097
:107F6000EA94F801C1F70894C11CD11CFA94CF0C13
:107F7000D11C0EC0853739F428D08EE10CD085E9AC
:107F80000AD08FE07ACF813511F488E018D01DD067
:107F900080E101D065CF982F8091C00085FFFCCF94
:107FA0009093C60008958091C00087FFFCCF809118
:107FB000C00084FD01C0A8958091C6000895E0E648
:107FC000F0E098E1908380830895EDDF803219F02E
:107FD00088E0F5DFFFCF84E1DECF1F93182FE3DFCA
:107FE0001150E9F7F2DF1F91089580E0E8DFEE27F6
:047FF000FF270994CA
:027FFE00040479
:0400000300007E007B
:00000001FF