:100000000C9462000C948A000C948A000C948A0070
:100010000C948A000C948A000C948A000C948A0038
:100020000C948A000C9445060C948A000C94840568
:100030000C948A000C948A000C948A000C948A0018
:100040000C943A050C948A000C9408050C94E20474
:100050000C948A000C948A000C948A000C948A00F8
:100060000C948A000C948A000000000023002600F3
:10007000290000000008000201000003040700003E
:1000800000000000000000000000250028002B00F8
:1000900000000000240027002A00040404040404D3
:1000A0000404020202020202030303030303010227
:1000B00004081020408001020408102001020408F6
:1000C0001020C60711241FBECFEFD8E0DEBFCDBF82
:1000D00011E0A0E0B1E0EEEFF6E102C005900D9274
:1000E000AA31B107D9F722E0AAE1B1E001C01D921F
:1000F000AE31B207E1F710E0C2E6D0E004C02197CC
:10010000FE010E94450AC136D107C9F70E9467085F
:100110000C947D0B0C940000AC012091DB01E0916C
:10012000D901F091DA013A9690E0921759F0DF0187
:100130001A976D917C916417750709F410829F5F7F
:100140003B96F3CF089590E0FC01E255FF4F2491D8
:10015000FC01E656FF4F8491882399F090E0880FC8
:10016000991FFC01E057FF4FA591B491FC01EA579C
:10017000FF4F859194918FB7F894EC91E22BEC931B
:100180008FBF08958F929F92AF92BF92DF92EF92AE
:10019000FF920F931F93CF93DF9310E00BE0212F7B
:1001A00030E08091DB0190E00197281739070CF0CF
:1001B00045C08BE0189F9001112481E09091DB01F4
:1001C0008917D0F5C091D901D091DA01DE01A20FD3
:1001D000B31F12964D915D916D917C9115979BE0A7
:1001E000899FC00DD11D11248A809B80AC80BD8069
:1001F00084169506A606B706E8F4ED90FC901197D4
:1002000016968D909D90AD90BC9019971A969C91E2
:100210001A97FE01D02E01900D92DA94E1F7F9823F
:10022000E8824A835B836C837D838E829F82A8866B
:10023000B9869A878F5FC2CF1F5FB1CFDF91CF9111
:100240001F910F91FF90EF90DF90BF90AF909F9024
:100250008F900895CF92DF92EF92FF920F931F93AA
:10026000CF93DF936C017A018B01C0E0D0E0CE1513
:10027000DF0589F0D8016D918D01D601ED91FC91DA
:100280000190F081E02DC6010995892B11F47E01C2
:1002900002C02196ECCFC701DF91CF911F910F9142
:1002A000FF90EF90DF90CF90089540912C015091F6
:1002B0002D0160912E0170912F0180912401909168
:1002C0002501A0912601B0912701481759076A0717
:1002D0007B0721F485E591E00E948C0080E489B9D8
:1002E00080910001082E000C990BAA0BBB0B4091CA
:1002F0002C0150912D0160912E0170912F01840FDE
:10030000951FA61FB71F80932C0190932D01A093DA
:100310002E01B0932F010895409130015091310189
:1003200060913201709133018091280190912901EF
:10033000A0912A01B0912B01481759076A077B0742
:1003400021F48CE891E00E948C0088E089B98091CA
:100350000101082E000C990BAA0BBB0B4091300138
:10036000509131016091320170913301840F951FDA
:10037000A61FB71F8093300190933101A0933201E3
:10038000B09333010895089580E090E00895FC0152
:10039000538D448D252F30E0842F90E0821B930BEA
:1003A000541710F0CF96089501970895FC01918D90
:1003B000828D981761F0828DDF01A80FB11D5D96C7
:1003C0008C91928D9F5F9F73928F90E008958FEF35
:1003D0009FEF0895FC01918D828D981731F0828DE9
:1003E000E80FF11D858D90E008958FEF9FEF089540
:1003F000FC01918D228D892F90E0805C9F4F821BA4
:1004000091098F73992708958CE391E00E94F80178
:1004100021E0892B09F420E0822F0895FC01848DCE
:10042000DF01A80FB11DA35ABF4F2C91848D90E01E
:1004300001968F739927848FA689B7892C93A089F9
:10044000B1898C9180648C93938D848D981306C0B0
:100450000288F389E02D80818F7D80830895EF925B
:10046000FF920F931F93CF93DF93EC0181E0888F6E
:100470009B8D8C8D981305C0E889F989808185FD55
:1004800024C0F62E0B8D10E00F5F1F4F0F73112746
:10049000E02E8C8DE8120CC00FB607FCFACFE8896D
:1004A000F989808185FFF5CFCE010E940E02F1CF40
:1004B0008B8DFE01E80FF11DE35AFF4FF0820B8F89
:1004C000EA89FB898081806207C0EE89FF896083A9
:1004D000E889F98980818064808381E090E0DF9100
:1004E000CF911F910F91FF90EF900895CF93DF93DD
:1004F000EC01888D8823C9F0EA89FB89808185FD1C
:1005000005C0A889B9898C9186FD0FC00FB607FC7C
:10051000F5CF808185FFF2CFA889B9898C9185FFBD
:10052000EDCFCE010E940E02E7CFDF91CF9108956B
:1005300080E090E0892B29F00E94040281110C9444
:1005400000000895833081F028F4813099F08230E2
:10055000A1F008958730A9F08830B9F08430D1F443
:10056000809180008F7D03C0809180008F77809381
:100570008000089584B58F7702C084B58F7D84BDD7
:1005800008958091B0008F7703C08091B0008F7D77
:100590008093B0000895CF93DF93282F30E0F901C6
:1005A000EE58FF4F8491F901E255FF4FD491F901C4
:1005B000E656FF4FC491CC2391F081110E94A20214
:1005C000EC2FF0E0EE0FFF1FE859FF4FA591B4911B
:1005D000EC91ED2381E090E021F480E002C080E026
:1005E00090E0DF91CF9108951F93CF93DF93282F51
:1005F00030E0F901EE58FF4F8491F901E255FF4FC9
:10060000D491F901E656FF4FC491CC23C9F0162FBF
:1006100081110E94A202EC2FF0E0EE0FFF1FEA57BB
:10062000FF4FA591B4918FB7F894111105C09C911B
:10063000ED2FE095E92302C0EC91ED2BEC938FBFF9
:10064000DF91CF911F910895CF92DF92EF92FF92A9
:10065000CF93DF93EC01603282E078070CF03DC06D
:1006600077FD06C0653B71052CF064EB70E002C0BD
:1006700060E070E0898128E830E06901C81AD1089B
:1006800087FDD394CC0CDD1CCC0CDD1C0D2C000C98
:10069000EE08FF088A8128E532E0281B310987FD32
:1006A0003395220F331F220F331FC901330FAA0BBB
:1006B000BB0B9C01AD012C193D094E095F09DB0103
:1006C0000E94000A24EB30E040E050E00E94D6098E
:1006D000C20ED31EE41EF51EB60188818C3080F553
:1006E000998148E850E0491B510997FD5395440F03
:1006F000551F440F551F6417750784F09A8128E52C
:1007000032E0291B310997FD3395220F331F220F49
:10071000331FAB01261737070CF4A90142505109CA
:10072000440F551F2FB7F89490E0FC01EE0FFF1F08
:100730008E0F9F1FFC01E151FE4F528341832FBF5B
:10074000DF91CF91FF90EF90DF90CF9008950F93BE
:100750001F93CF93DF931F92CDB7DEB78C01DC01DF
:100760008C918C3008F055C0862F69830E94A300BD
:10077000F8018081E82FF0E09F01220F331FE20F84
:10078000F31FE151FE4F69816F739081907C692B5B
:100790006083D80111961C92119712961C926CE0FE
:1007A0000E94390ABCE08B9FB001112440E050E068
:1007B0009A01260F371FF901EE0FFF1F2E0F3F1F63
:1007C000F901E151FE4F908196FD16C04F5F5F4FDA
:1007D0004C30510569F781110FC01092800082E002
:1007E000809381001092850010928400B19A8091CC
:1007F0006F00826080936F00D801EC91F0E0CF0130
:10080000880F991FE80FF91FE151FE4F8081806426
:100810008083F80180810F90DF91CF911F910F911C
:100820000895AF92BF92CF92DF92EF92FF920F9313
:100830001F93CF93DF938C018091DB01A091D901AD
:10084000B091DA019D0190E0981739F1255F3F4F93
:10085000F9013B970190F081E02DE017F10711F0CD
:100860009F5FF2CF90E08091DB01981708F09DC068
:10087000FD012BE0929FE00DF11D112420813181BB
:100880002017310741F44283538364837583468381
:100890005783608771879F5FE6CF6A017B0181E0A4
:1008A000890F8093DB01A82EB12C6BE0869FC001DD
:1008B00011240E944B0AEC01FC01A50181E0A11466
:1008C000B10481F011821082128213821482158287
:1008D000168217821086118682873B9621E0A21A23
:1008E000B108EDCF90E0415051098BE0292F30E065
:1008F000E091D901F091DA012417350784F46BE017
:10090000969F90011124DE01A20FB31FE20FF31F87
:10091000282F01900D922A95E1F79F5FE7CF30973E
:1009200019F0CF010E94E00AD093DA01C093D901F7
:100930008091DB019BE0899FC00DD11D11242B9775
:1009400019830883CA82DB82EC82FD82CE82DF8239
:10095000E886F98691E09A874091E2015091E3019F
:100960006091E4017091E501411551056105710542
:1009700029F0C416D506E606F70658F4C092E2013F
:10098000D092E301E092E401F092E501815080937E
:10099000E601DF91CF911F910F91FF90EF90DF90D3
:1009A000CF90BF90AF900C94C200DF91CF911F9178
:1009B0000F91FF90EF90DF90CF90BF90AF90089590
:1009C0000E94780B1F920F920FB60F9211242F9353
:1009D0003F934F935F936F937F938F939F93AF93C7
:1009E000BF93EF93FF938CE391E00E940E02FF917F
:1009F000EF91BF91AF919F918F917F916F915F9197
:100A00004F913F912F910F900FBE0F901F9018950F
:100A10001F920F920FB60F9211242F938F939F93D3
:100A2000EF93FF93E0914C01F0914D018081E091B3
:100A30005201F091530182FD12C0908180915501C5
:100A40008F5F8F7320915601821751F0E09155010D
:100A5000F0E0E45CFE4F958F8093550101C08081EA
:100A6000FF91EF919F918F912F910F900FBE0F905B
:100A70001F9018951F920F920FB60F9211242F936B
:100A80003F938F939F93AF93BF9380912001909159
:100A90002101A0912201B091230130911F0123E097
:100AA000230F2D3720F40196A11DB11D05C026E8A6
:100AB000230F0296A11DB11D20931F0180932001D9
:100AC00090932101A0932201B093230180911B01F7
:100AD00090911C01A0911D01B0911E010196A11DD4
:100AE000B11D80931B0190931C01A0931D01B09335
:100AF0001E01BF91AF919F918F913F912F910F90C8
:100B00000FBE0F901F9018951F920F920FB60F9265
:100B100011242F933F934F935F936F937F938F9302
:100B20009F93AF93BF93EF93FF9380911A0187FF39
:100B300005C010928500109284001BC020911A01FC
:100B4000022E000C330B8091130290E02817390716
:100B500084F480911A01082E000C990BFC01EE0F11
:100B6000FF1F8E0F9F1FFC01E151FE4F808186FD0C
:100B700015C080911A018F5F80931A0120911A018C
:100B8000022E000C330B8091130290E028173907D6
:100B9000C4F480911A018C3064F113C080911A0161
:100BA000082E000C990BFC01EE0FFF1F8E0F9F1FEC
:100BB000FC01E151FE4F808160E08F730E94F402DE
:100BC000D8CF8091840090918500049680349C4910
:100BD00018F480E49CE905C0809184009091850020
:100BE000049690938900809388008FEF80931A0178
:100BF0003BC0209184003091850080911A01082E1D
:100C0000000C990BFC01EE0FFF1F8E0F9F1FFC01C4
:100C1000E151FE4F81819281820F931F9093890051
:100C20008093880080911A01082E000C990BFC011A
:100C3000EE0FFF1F8E0F9F1FFC01E151FE4F8081C1
:100C400086FF12C080911A01082E000C990BFC013E
:100C5000EE0FFF1F8E0F9F1FFC01E151FE4F8081A1
:100C600061E08F730E94F402FF91EF91BF91AF9109
:100C70009F918F917F916F915F914F913F912F91B4
:100C80000F900FBE0F901F9018951F920F920FB6E6
:100C90000F921124CF92DF92EF92FF920F931F9346
:100CA0002F933F934F935F936F937F938F939F9374
:100CB000AF93BF93CF93DF93EF93FF932FB7F89446
:100CC0008091200190912101A0912201B0912301F6
:100CD0002FBF8093E7019093E801A093E901B093BF
:100CE000EA018091DE019091DF01A091E001B091D5
:100CF000E10180589F4FAF4FBF4F8093DE0190932B
:100D0000DF01A093E001B093E1014091E201509135
:100D1000E3016091E4017091E50184179507A6074E
:100D2000B707D0F4481B590B6A0B7B0B9A012F773E
:100D30003327220F331F8FEF90E0821B930B90938A
:100D4000DD018093DC01403851056105710510F02B
:100D500082E001C18E5FFFC01092DE011092DF01C0
:100D60001092E0011092E10110E03091DB018091DE
:100D7000D9019091DA01131708F046C02BE0129FB9
:100D8000E0011124FC01EC0FFD1F22852223D1F18B
:100D900046815781608571852091E601DC013BE049
:100DA000239FA00DB11D112416968D919D910D903C
:100DB000BC91A02D481759076A077B0799F4019049
:100DC000F081E02D09958091D9019091DA01C80F49
:100DD000D91F8A819B81AC81BD818E839F83A88727
:100DE000B98710C08091E2019091E301A091E401E4
:100DF000B091E501481B590B6A0B7B0B4683578367
:100E0000608771871F5FB1CF1092E601FC01759674
:100E100021E02317F8F440814423C9F04091E60112
:100E2000EC015BE0459FC00DD11D1124DF0114973B
:100E3000CD90DD90ED90FC904E815F816885798545
:100E4000C416D506E606F70610F42093E6012F5FD8
:100E50003B96DFCF2091E601FC013BE0239FE00DB4
:100E6000F11D112486819781A085B1858093E201CF
:100E70009093E301A093E401B093E5014091DE017A
:100E80005091DF016091E0017091E101841B950BAD
:100E9000A60BB70B8F779927880F991F2FEF30E09C
:100EA000A901481B590B5093DD014093DC012FB77A
:100EB000F8948091200190912101A0912201B0919C
:100EC00023012FBF4091E7015091E8016091E901B2
:100ED0007091EA01841B950BA60BB70B8093EB0175
:100EE0009093EC01A093ED01B093EE014091E201EB
:100EF0005091E3016091E4017091E5010091DE0100
:100F00001091DF012091E0013091E101401B510B74
:100F1000620B730B403851056105710530F0469640
:100F2000A11DB11D880F991F0AC02091DC013091CD
:100F3000DD01245D3F4F880F991F820F931F90930F
:100F4000DD018093DC018091DC019091DD018F3F18
:100F5000910508F08EEF8093B200FF91EF91DF9141
:100F6000CF91BF91AF919F918F917F916F915F9141
:100F70004F913F912F911F910F91FF90EF90DF9034
:100F8000CF900F900FBE0F901F90189510923F01B9
:100F900010923E0188EE93E0A0E0B0E08093400123
:100FA00090934101A0934201B09343018CE091E002
:100FB00090933D0180933C0185EC90E09093490132
:100FC0008093480184EC90E090934B0180934A0118
:100FD00080EC90E090934D0180934C0181EC90E087
:100FE00090934F0180934E0182EC90E090935101D9
:100FF0008093500186EC90E09093530180935201CE
:1010000010925501109256011092570110925801FA
:101010001092DB011092DD011092DC011092DE01D2
:101020001092DF011092E0011092E1011092E201B2
:101030001092E3011092E4011092E5011092E60192
:101040001092E7011092E8011092E9011092EA0172
:101050001092EB011092EC011092ED011092EE0152
:10106000809113028C30A0F491E0980F90931302BA
:101070008093170290E0FC01EE0FFF1F8E0F9F1F61
:10108000FC01E151FE4F88EB9BE09283818303C01A
:101090008FEF80931702809113028C30A0F491E0BF
:1010A000980F909313028093140290E0FC01EE0FCE
:1010B000FF1F8E0F9F1FFC01E151FE4F88EB9BE04D
:1010C0009283818308958FEF809314020895CF93C4
:1010D000DF931F92CDB7DEB7789484B5826084BD6C
:1010E00084B5816084BD85B5826085BD85B581602C
:1010F00085BD80916E00816080936E0010928100AA
:101100008091810082608093810080918100816064
:101110008093810080918000816080938000809125
:10112000B10084608093B1008091B00081608093B1
:10113000B00080917A00846080937A0080917A0078
:10114000826080937A0080917A00816080937A0037
:1011500080917A00806880937A001092C10068E0E4
:1011600070E087E192E00E94A70369E070E084E10B
:1011700092E00E94A70382E00E94A30083E00E9405
:10118000A30084E00E94A30085E00E94A30086E003
:101190000E94A30087E00E94A30060E082E00E941A
:1011A000F40260E085E00E94F40260E084E00E94C6
:1011B000F40260E087E00E94F40281E08093000185
:1011C00080930101F8941092B0001092B100109237
:1011D000700092E09093B1001092B2008093700082
:1011E0001092DB011092DD011092DC011092DE0101
:1011F0001092DF011092E0011092E1011092E201E1
:101200001092E3011092E4011092E5011092E601C0
:101210000E94C20078944091E2015091E3016091F4
:10122000E4017091E5018091DE019091DF01A091D0
:10123000E001B091E101481B590B6A0B7B0BDB010C
:10124000CA0180959095A095B0958F779927880FC2
:10125000991F9093DD018093DC01403851056105B1
:10126000710518F01092B20002C08093B20064EBD6
:1012700070E087E192E00E94240360E070E084E186
:1012800092E00E94240380EA96E8A1E0B0E0809317
:10129000340190933501A0933601B093370100914A
:1012A0002C0110912D0120912E0130912F01BC01B4
:1012B000CD01601B710B820B930B60932401709323
:1012C000250180932601909327019B01AC0197FF94
:1012D00007C022273327A901261B370B480B590BC0
:1012E0000E94D60948E853E160E070E085E591E0AE
:1012F00029830E941104298120930001622F87E035
:101300000E94F40280EA96E8A1E0B0E08093380100
:1013100090933901A0933A01B0933B0100913001C1
:10132000109131012091320130913301BC01CD0186
:10133000601B710B820B930B609328017093290142
:1013400080932A0190932B019B01AC0197FF07C06A
:1013500022273327A901261B370B480B590B0E9464
:10136000D60948E853E160E070E08CE891E0298319
:101370000E941104298120930101622F84E00E94C0
:10138000F4028DE00E94CB02892BD9F785E591E02C
:101390000E948C008CE00E94CB02892BD9F785E556
:1013A00091E00E948C000E949802FDCF052E97FBD1
:1013B0001EF400940E94ED0957FD07D00E94080A10
:1013C00007FC03D04EF40C94ED09509540953095F0
:1013D00021953F4F4F4F5F4F0895909580957095A1
:1013E00061957F4F8F4F9F4F08950E942A0AA59FB6
:1013F000900DB49F900DA49F800D911D1124089510
:10140000B7FF0C94F5090E94F509821B930B089510
:10141000A1E21A2EAA1BBB1BFD010DC0AA1FBB1FF8
:10142000EE1FFF1FA217B307E407F50720F0A21B6A
:10143000B30BE40BF50B661F771F881F991F1A94D7
:1014400069F760957095809590959B01AC01BD0101
:10145000CF010895A29FB001B39FC001A39F700D5B
:10146000811D1124911DB29F700D811D1124911DAC
:101470000895991B79E004C0991F961708F0961BF0
:10148000881F7A95C9F780950895EE0FFF1F059084
:10149000F491E02D0994CF93DF938230910510F4FD
:1014A00082E090E0E0911C02F0911D0220E030E02B
:1014B000C0E0D0E0309711F14081518148175907C1
:1014C000C0F04817590761F482819381209719F081
:1014D0009B838A832BC090931D0280931C0226C09D
:1014E0002115310519F04217530718F49A01BE016E
:1014F000DF01EF010280F381E02DDCCF2115310502
:1015000009F1281B390B2430310590F412968D9186
:101510009C9113976115710521F0FB0193838283E0
:1015200004C090931D0280931C02FD01329644C0BA
:10153000FD01E20FF31F81939193225031092D9306
:101540003C933AC020911A0230911B02232B41F4A4
:10155000209104013091050130931B0220931A025F
:1015600020910201309103012115310541F42DB77D
:101570003EB74091060150910701241B350BE091C5
:101580001A02F0911B02E217F307A0F42E1B3F0B87
:101590002817390778F0AC014E5F5F4F24173507E5
:1015A00048F04E0F5F1F50931B0240931A02819325
:1015B000919302C0E0E0F0E0CF01DF91CF91089578
:1015C0000F931F93CF93DF93009709F48CC0FC0116
:1015D00032971382128200911C0210911D02011594
:1015E000110581F420813181820F931F20911A020D
:1015F00030911B022817390779F5F0931B02E0930D
:101600001A0271C0D80140E050E0AE17BF0750F495
:1016100012962D913C911397AD012115310509F1D9
:10162000D901F3CF9D01DA01338322836081718177
:10163000860F971F8217930769F4EC01288139817F
:10164000260F371F2E5F3F4F318320838A819B8176
:1016500093838283452B29F4F0931D02E0931C02AF
:1016600042C01396FC93EE931297ED014991599164
:101670009E01240F351FE217F30771F480819181D9
:10168000840F951F029611969C938E93828193816D
:1016900013969C938E931297E0E0F0E0D801129697
:1016A0008D919C911397009719F0F8018C01F6CF5A
:1016B0008D919C9198012E5F3F4F820F931F209137
:1016C0001A0230911B022817390769F4309729F460
:1016D00010921D0210921C0202C0138212821093FB
:1016E0001B0200931A02DF91CF911F910F91089571
:0E16F00081E090E0F8940C947D0BF894FFCF0D
:1016FE00010100001E028000000000002F022A01DE
:0A170E00C7017602F801D601EA01D6
:107E0000112484B714BE81FFF0D085E080938100F7
:107E100082E08093C00088E18093C10086E0809377
:107E2000C20080E18093C4008EE0C9D0259A86E02C
:107E300020E33CEF91E0309385002093840096BBD3
:107E4000B09BFECF1D9AA8958150A9F7CC24DD24C4
:107E500088248394B5E0AB2EA1E19A2EF3E0BF2EE7
:107E6000A2D0813461F49FD0082FAFD0023811F036
:107E7000013811F484E001C083E08DD089C08234E0
:107E800011F484E103C0853419F485E0A6D080C0E4
:107E9000853579F488D0E82EFF2485D0082F10E0AE
:107EA000102F00270E291F29000F111F8ED06801E7
:107EB0006FC0863521F484E090D080E0DECF843638
:107EC00009F040C070D06FD0082F6DD080E0C81688
:107ED00080E7D80618F4F601B7BEE895C0E0D1E017
:107EE00062D089930C17E1F7F0E0CF16F0E7DF06D8
:107EF00018F0F601B7BEE89568D007B600FCFDCFD4
:107F0000A601A0E0B1E02C9130E011968C91119780
:107F100090E0982F8827822B932B1296FA010C0160
:107F200087BEE89511244E5F5F4FF1E0A038BF0790
:107F300051F7F601A7BEE89507B600FCFDCF97BE46
:107F4000E89526C08437B1F42ED02DD0F82E2BD052
:107F50003CD0F601EF2C8F010F5F1F4F84911BD097
:107F6000EA94F801C1F70894C11CD11CFA94CF0C13
:107F7000D11C0EC0853739F428D08EE10CD085E9AC
:107F80000AD08FE07ACF813511F488E018D01DD067
:107F900080E101D065CF982F8091C00085FFFCCF94
:107FA0009093C60008958091C00087FFFCCF809118
:107FB000C00084FD01C0A8958091C6000895E0E648
:107FC000F0E098E1908380830895EDDF803219F02E
:107FD00088E0F5DFFFCF84E1DECF1F93182FE3DFCA
:107FE0001150E9F7F2DF1F91089580E0E8DFEE27F6
:047FF000FF270994CA
:027FFE00040479
:0400000300007E007B
:00000001FF